{
  "_format": "hh-sol-artifact-1",
  "contractName": "MedicalRecord",
  "sourceName": "contracts/patientsData.sol",
  "abi": [
    {
      "inputs": [],
      "stateMutability": "nonpayable",
      "type": "constructor"
    },
    {
      "inputs": [
        {
          "internalType": "address",
          "name": "patientAddress",
          "type": "address"
        },
        {
          "internalType": "string",
          "name": "description",
          "type": "string"
        }
      ],
      "name": "addPatientData",
      "outputs": [],
      "stateMutability": "nonpayable",
      "type": "function"
    },
    {
      "inputs": [
        {
          "internalType": "address",
          "name": "patientAddress",
          "type": "address"
        }
      ],
      "name": "getPatientData",
      "outputs": [
        {
          "internalType": "string",
          "name": "",
          "type": "string"
        }
      ],
      "stateMutability": "view",
      "type": "function"
    },
    {
      "inputs": [],
      "name": "owner",
      "outputs": [
        {
          "internalType": "address",
          "name": "",
          "type": "address"
        }
      ],
      "stateMutability": "view",
      "type": "function"
    },
    {
      "inputs": [
        {
          "internalType": "address",
          "name": "",
          "type": "address"
        }
      ],
      "name": "patientDescriptions",
      "outputs": [
        {
          "internalType": "string",
          "name": "",
          "type": "string"
        }
      ],
      "stateMutability": "view",
      "type": "function"
    }
  ],
  "bytecode": "0x608060405234801561001057600080fd5b50336000806101000a81548173ffffffffffffffffffffffffffffffffffffffff021916908373ffffffffffffffffffffffffffffffffffffffff160217905550610a1b806100606000396000f3fe608060405234801561001057600080fd5b506004361061004c5760003560e01c806348e81852146100515780638da5cb5b1461008157806397c332621461009f578063debefc2a146100bb575b600080fd5b61006b600480360381019061006691906103d1565b6100eb565b604051610078919061048e565b60405180910390f35b6100896101bc565b60405161009691906104bf565b60405180910390f35b6100b960048036038101906100b4919061060f565b6101e0565b005b6100d560048036038101906100d091906103d1565b6102bf565b6040516100e2919061048e565b60405180910390f35b6060600160008373ffffffffffffffffffffffffffffffffffffffff1673ffffffffffffffffffffffffffffffffffffffff16815260200190815260200160002080546101379061069a565b80601f01602080910402602001604051908101604052809291908181526020018280546101639061069a565b80156101b05780601f10610185576101008083540402835291602001916101b0565b820191906000526020600020905b81548152906001019060200180831161019357829003601f168201915b50505050509050919050565b60008054906101000a900473ffffffffffffffffffffffffffffffffffffffff1681565b60008054906101000a900473ffffffffffffffffffffffffffffffffffffffff1673ffffffffffffffffffffffffffffffffffffffff163373ffffffffffffffffffffffffffffffffffffffff161461026e576040517f08c379a00000000000000000000000000000000000000000000000000000000081526004016102659061073d565b60405180910390fd5b80600160008473ffffffffffffffffffffffffffffffffffffffff1673ffffffffffffffffffffffffffffffffffffffff16815260200190815260200160002090816102ba9190610913565b505050565b600160205280600052604060002060009150905080546102de9061069a565b80601f016020809104026020016040519081016040528092919081815260200182805461030a9061069a565b80156103575780601f1061032c57610100808354040283529160200191610357565b820191906000526020600020905b81548152906001019060200180831161033a57829003601f168201915b505050505081565b6000604051905090565b600080fd5b600080fd5b600073ffffffffffffffffffffffffffffffffffffffff82169050919050565b600061039e82610373565b9050919050565b6103ae81610393565b81146103b957600080fd5b50565b6000813590506103cb816103a5565b92915050565b6000602082840312156103e7576103e6610369565b5b60006103f5848285016103bc565b91505092915050565b600081519050919050565b600082825260208201905092915050565b60005b8381101561043857808201518184015260208101905061041d565b60008484015250505050565b6000601f19601f8301169050919050565b6000610460826103fe565b61046a8185610409565b935061047a81856020860161041a565b61048381610444565b840191505092915050565b600060208201905081810360008301526104a88184610455565b905092915050565b6104b981610393565b82525050565b60006020820190506104d460008301846104b0565b92915050565b600080fd5b600080fd5b7f4e487b7100000000000000000000000000000000000000000000000000000000600052604160045260246000fd5b61051c82610444565b810181811067ffffffffffffffff8211171561053b5761053a6104e4565b5b80604052505050565b600061054e61035f565b905061055a8282610513565b919050565b600067ffffffffffffffff82111561057a576105796104e4565b5b61058382610444565b9050602081019050919050565b82818337600083830152505050565b60006105b26105ad8461055f565b610544565b9050828152602081018484840111156105ce576105cd6104df565b5b6105d9848285610590565b509392505050565b600082601f8301126105f6576105f56104da565b5b813561060684826020860161059f565b91505092915050565b6000806040838503121561062657610625610369565b5b6000610634858286016103bc565b925050602083013567ffffffffffffffff8111156106555761065461036e565b5b610661858286016105e1565b9150509250929050565b7f4e487b7100000000000000000000000000000000000000000000000000000000600052602260045260246000fd5b600060028204905060018216806106b257607f821691505b6020821081036106c5576106c461066b565b5b50919050565b7f4f6e6c7920746865206f776e65722063616e2063616c6c20746869732066756e60008201527f6374696f6e000000000000000000000000000000000000000000000000000000602082015250565b6000610727602583610409565b9150610732826106cb565b604082019050919050565b600060208201905081810360008301526107568161071a565b9050919050565b60008190508160005260206000209050919050565b60006020601f8301049050919050565b600082821b905092915050565b6000600883026107bf7fffffffffffffffffffffffffffffffffffffffffffffffffffffffffffffffff82610782565b6107c98683610782565b95508019841693508086168417925050509392505050565b6000819050919050565b6000819050919050565b600061081061080b610806846107e1565b6107eb565b6107e1565b9050919050565b6000819050919050565b61082a836107f5565b61083e61083682610817565b84845461078f565b825550505050565b600090565b610853610846565b61085e818484610821565b505050565b5b818110156108825761087760008261084b565b600181019050610864565b5050565b601f8211156108c7576108988161075d565b6108a184610772565b810160208510156108b0578190505b6108c46108bc85610772565b830182610863565b50505b505050565b600082821c905092915050565b60006108ea600019846008026108cc565b1980831691505092915050565b600061090383836108d9565b9150826002028217905092915050565b61091c826103fe565b67ffffffffffffffff811115610935576109346104e4565b5b61093f825461069a565b61094a828285610886565b600060209050601f83116001811461097d576000841561096b578287015190505b61097585826108f7565b8655506109dd565b601f19841661098b8661075d565b60005b828110156109b35784890151825560018201915060208501945060208101905061098e565b868310156109d057848901516109cc601f8916826108d9565b8355505b6001600288020188555050505b50505050505056fea26469706673582212203fe0363ddcd93401c8920c32025d02ed22f3fd990c224f380783345fdc45e36e64736f6c63430008130033",
  "linkReferences": {},
  "deployedLinkReferences": {}
}